:060000000A128A110C280F
:10000800FE00030EF1000A08F2000A128A115328B2
:100018000A128A110F280A128A1188200A128A11D4
:10002800F400F30183010A128A117F28831603134F
:100038000F088F3940388F000F1483160317880173
:100048008901203083160313850003308600183099
:1000580087008801831203138501860187018801BF
:100068008B178B150B108316031316149614811314
:1000780015149514831203131408F03904389400E6
:10008800141294168316031314179413831203136C
:100098008C11831603138C158B170B1708000B1C78
:1000A8005628572869288312031306185C285D28E8
:1000B80062280130F0007008F4076828861865285F
:1000C800662868280130F4020B10831203138C1D74
:1000D8006E286F2878281308F0007008F30073085A
:1000E8008800740893008C1172088A00710E8300CE
:1000F800FE0E7E0E09000A128A111A200A128A11AF
:0A01080084280A128A110C2805341D
:08400000FF3FFF3FFF3FFF3FC0
:04400E00D420FF3F7C
:00000001FF
