:060000000A128A110C280F
:10000800FE00030EF1000A08F2000A128A11922873
:100018000A128A110F28F60183010A128A11592837
:10002800831603130F088F3940388F000F140130DF
:10003800831603178800890121308316031385006E
:100048001030870088018312031385018701880116
:100058000C13831603130C170B178B178312031338
:100068001F083F3940389F00831603131F129F1241
:10007800C330831203139F05831603139F13831240
:1000880003131F140330F300F30B4828F0308312D6
:100098000313940514129416831603131417941754
:1000A800760883120313930008000A128A11142099
:1000B8000A128A11831203139F18632864286B2875
:1000C8000330F400F40B6628831203139F14760898
:1000D800930083160313141C722873286D28831247
:1000E800031385170430F5003D30F400F40B7A282B
:1000F800F50B7A287F28831203138513FF309300AA
:1001080083160313141C89288A288428831203134E
:10011800130888005E280A128A110C288312031318
:100128000C1F97289828A6281F0CF000700C0F3970
:10013800003A031DA028A128A5281E08F000700871
:10014800F6000C1372088A00710E8300FE0E7E0EF4
:0201580009009C
:08400000FF3FFF3FFF3FFF3FC0
:04400E00D420FF3F7C
:00000001FF
